:100000000C942A000C943E000C944D000C945A0061
:100010000C943C000C943C000C943C000C943C0070
:100020000C943C000C943C000C943C000C943C0060
:100030000C943C000C943C000C943C000C943C0050
:100040000C943C000C943C000C943C000C943C0040
:100050000C943C0011241FBECFE5D8E0DEBFCDBF1D
:1000600020E0A0E6B0E001C01D92A236B207E1F7A1
:100070000E9469000C94DA000C9400001F920F9209
:100080000FB60F9211248F938FEF809361008F91A1
:100090000F900FBE0F901F9018951F920F920FB6E2
:1000A0000F92112410926100C59A0F900FBE0F900D
:1000B0001F9018951F920F920FB60F9211248F93D5
:1000C0008FEF809360008F910F900FBE0F901F9065
:1000D00018951ABA1BBA80E287BB18BA83E084BBB2
:1000E00015BA80E381BB12BA8BB7806E8BBF8FE0ED
:1000F00085BF80E484BF80EE8ABF78949DE088E16C
:100100000FB6F894A89581BD0FBE91BD80E090E038
:1001100060E070E040E050E0A0E1F0E1E7E200974D
:1001200021F422B32A2722BBA895B19B04C0999B36
:1001300002C0A99804C0B19902C0999BA99AB59B25
:1001400016C020916100222391F0859B0BC09B017A
:1001500021503109672B51F49598C5981092610090
:10016000B90105C0959A6F2F7E2F01C0B90120916A
:1001700060002223D1F04F5F5F4F49322AE05207DF
:10018000A0F0989B0AC0493F2AE2520770F0A89855
:100190001092600040E050E008C0B19B05C0109292
:1001A000600040E050E001C0A89A24E02A95F1F7F1
:0801B0000196B5CFF894FFCFD2
:00000001FF
