:100000000C942A000C943E000C944F000C945E005B
:100010000C943C000C943C000C943C000C943C0070
:100020000C943C000C943C000C943C000C943C0060
:100030000C943C000C943C000C943C000C943C0050
:100040000C943C000C943C000C943C000C943C0040
:100050000C943C0011241FBECFE5D8E0DEBFCDBF1D
:1000600020E0A0E6B0E001C01D92A336B207E1F7A0
:100070000E946D000C94D5000C9400001F920F920A
:100080000FB60F9211248F93109261008FEF80931F
:1000900062008F910F900FBE0F901F9018951F92C6
:1000A0000F920FB60F9211248F938FEF8093610000
:1000B0008F910F900FBE0F901F9018951F920F9267
:1000C0000FB60F9211248F938FEF809360008F9162
:1000D0000F900FBE0F901F9018951ABA1BBA17BA3F
:1000E00018BA14BA15BA80E781BB12BA8BB7806E02
:1000F0008BBF8FE085BF80E484BF80EE8ABF789499
:100100009CE088E10FB6F894A89581BD0FBE91BD23
:1001100080E090E060E070E040E050E0A0E4F0E1DA
:10012000E7E2009721F422B32A2722BBA895209169
:1001300062002223B9F020916100222399F0849B70
:100140000CC09B0121503109672B59F494981092EF
:10015000620010926100B90105C0949A6F2F7E2F42
:1001600001C0B901209160002223D1F04F5F5F4FA1
:1001700049322AE05207A0F0859B0AC0493F2AE293
:10018000520770F095981092600040E050E008C06F
:10019000B09B05C01092600040E050E001C0959A0D
:0E01A00024E02A95F1F70196BCCFF894FFCF2A
:00000001FF
