S01000006D69534C5F4645422E7372656373
S11300000C942A000C943E000C944D000C945E0059
S11300100C943C000C943C000C943C000C943C006C
S11300200C943C000C943C000C943C000C943C005C
S11300300C943C000C943C000C943C000C943C004C
S11300400C943C000C943C000C943C000C943C003C
S11300500C943C0011241FBECFE5D8E0DEBFCDBF19
S113006020E0A0E6B0E001C01D92A336B207E1F79C
S11300700E946D000C94E0000C9400001F920F92FB
S11300800FB60F9211248F938FEF809361008F919D
S11300900F900FBE0F901F9018951F920F920FB6DE
S11300A00F9211248F93109261008FEF809362005E
S11300B08F910F900FBE0F901F9018951F920F9263
S11300C00FB60F9211248F938FEF809360008F915E
S11300D00F900FBE0F901F9018951ABA1BBA17BA3B
S11300E018BA83E084BB15BA80E681BB12BA8BB719
S11300F0806E8BBF8FE085BF80E484BF80EE8ABFB3
S113010078949DE088E10FB6F894A89581BD0FBE60
S113011091BD80E090E060E070E040E050E0A0E459
S1130120F0E1E7E2009721F422B32A2722BBA89545
S1130130B19B04C0999B02C0A99804C0B19902C0A4
S1130140999BA99A209162002223B9F02091610021
S1130150222399F0859B0CC09B0121503109672B08
S113016059F495981092620010926100B90105C08B
S1130170959A6F2F7E2F01C0B90120916000222330
S1130180D1F04F5F5F4F49322AE05207A0F0989BAD
S11301900AC0493F2AE2520770F0A8981092600002
S11301A040E050E008C0B19B05C01092600040E000
S11301B050E001C0A89A24E02A95F1F70196B2CF45
S10701C0F894FFCFDD
S9030000FC
